{
  "_format": "hh-sol-artifact-1",
  "contractName": "ZKT",
  "sourceName": "contracts/ZKT.sol",
  "abi": [
    {
      "inputs": [
        {
          "internalType": "contract IVerifier",
          "name": "_verify",
          "type": "address"
        }
      ],
      "stateMutability": "nonpayable",
      "type": "constructor"
    },
    {
      "inputs": [
        {
          "internalType": "address",
          "name": "account",
          "type": "address"
        }
      ],
      "name": "AddressInsufficientBalance",
      "type": "error"
    },
    {
      "inputs": [],
      "name": "FailedInnerCall",
      "type": "error"
    },
    {
      "anonymous": false,
      "inputs": [
        {
          "indexed": true,
          "internalType": "address",
          "name": "creator",
          "type": "address"
        },
        {
          "indexed": true,
          "internalType": "uint256",
          "name": "index",
          "type": "uint256"
        },
        {
          "indexed": false,
          "internalType": "string",
          "name": "name",
          "type": "string"
        },
        {
          "indexed": false,
          "internalType": "uint256",
          "name": "availableTicket",
          "type": "uint256"
        },
        {
          "indexed": false,
          "internalType": "uint256",
          "name": "price",
          "type": "uint256"
        }
      ],
      "name": "NewTicketEvent",
      "type": "event"
    },
    {
      "inputs": [
        {
          "internalType": "bytes32",
          "name": "commitment",
          "type": "bytes32"
        },
        {
          "internalType": "uint256",
          "name": "eventIndex",
          "type": "uint256"
        }
      ],
      "name": "buyTicket",
      "outputs": [],
      "stateMutability": "payable",
      "type": "function"
    },
    {
      "inputs": [
        {
          "internalType": "uint256",
          "name": "ticketPrice",
          "type": "uint256"
        }
      ],
      "name": "calculateFees",
      "outputs": [
        {
          "internalType": "uint256",
          "name": "",
          "type": "uint256"
        },
        {
          "internalType": "uint256",
          "name": "",
          "type": "uint256"
        }
      ],
      "stateMutability": "pure",
      "type": "function"
    },
    {
      "inputs": [
        {
          "internalType": "uint256",
          "name": "_price",
          "type": "uint256"
        },
        {
          "internalType": "string",
          "name": "_event_name",
          "type": "string"
        },
        {
          "internalType": "uint256",
          "name": "_on_of_ticket",
          "type": "uint256"
        }
      ],
      "name": "createTicketEvent",
      "outputs": [],
      "stateMutability": "nonpayable",
      "type": "function"
    },
    {
      "inputs": [],
      "name": "ticketEventIndex",
      "outputs": [
        {
          "internalType": "uint256",
          "name": "",
          "type": "uint256"
        }
      ],
      "stateMutability": "view",
      "type": "function"
    },
    {
      "inputs": [],
      "name": "verifier",
      "outputs": [
        {
          "internalType": "contract IVerifier",
          "name": "",
          "type": "address"
        }
      ],
      "stateMutability": "view",
      "type": "function"
    },
    {
      "inputs": [
        {
          "internalType": "bytes32",
          "name": "_nullifierHash",
          "type": "bytes32"
        },
        {
          "internalType": "bytes32",
          "name": "_commitment",
          "type": "bytes32"
        }
      ],
      "name": "verifyTicket",
      "outputs": [
        {
          "internalType": "bool",
          "name": "",
          "type": "bool"
        }
      ],
      "stateMutability": "view",
      "type": "function"
    }
  ],
  "bytecode": "0x60806040523480156200001157600080fd5b506040516200125c3803806200125c833981810160405281019062000037919062000145565b80600160006101000a81548173ffffffffffffffffffffffffffffffffffffffff021916908373ffffffffffffffffffffffffffffffffffffffff160217905550336000806101000a81548173ffffffffffffffffffffffffffffffffffffffff021916908373ffffffffffffffffffffffffffffffffffffffff16021790555060006002819055505062000177565b600080fd5b600073ffffffffffffffffffffffffffffffffffffffff82169050919050565b6000620000f982620000cc565b9050919050565b60006200010d82620000ec565b9050919050565b6200011f8162000100565b81146200012b57600080fd5b50565b6000815190506200013f8162000114565b92915050565b6000602082840312156200015e576200015d620000c7565b5b60006200016e848285016200012e565b91505092915050565b6110d580620001876000396000f3fe6080604052600436106100555760003560e01c80630d7fc0e91461005a5780632b7ac3f314610085578063368d804d146100b057806352238fdd146100ed578063ad4a450d1461012b578063e295fa7f14610154575b600080fd5b34801561006657600080fd5b5061006f610170565b60405161007c9190610763565b60405180910390f35b34801561009157600080fd5b5061009a610176565b6040516100a791906107fd565b60405180910390f35b3480156100bc57600080fd5b506100d760048036038101906100d29190610858565b61019c565b6040516100e491906108b3565b60405180910390f35b3480156100f957600080fd5b50610114600480360381019061010f91906108fa565b610209565b604051610122929190610927565b60405180910390f35b34801561013757600080fd5b50610152600480360381019061014d91906109b5565b610250565b005b61016e60048036038101906101699190610a29565b610380565b005b60025481565b600160009054906101000a900473ffffffffffffffffffffffffffffffffffffffff1681565b60006005600084815260200190815260200160002060009054906101000a900460ff16156101cd5760009050610203565b6004600083815260200190815260200160002060020160009054906101000a900460ff166101fe5760009050610203565b600190505b92915050565b6000806000806102236064866105f890919063ffffffff16565b9150915060008061023d838861062e90919063ffffffff16565b9150915082819550955050505050915091565b6001600260008282546102639190610a98565b925050819055508360036000600254815260200190815260200160002060010181905550828260036000600254815260200190815260200160002060020191826102ae929190610d08565b5080600360006002548152602001908152602001600020600301819055503360036000600254815260200190815260200160002060000160006101000a81548173ffffffffffffffffffffffffffffffffffffffff021916908373ffffffffffffffffffffffffffffffffffffffff1602179055506002543373ffffffffffffffffffffffffffffffffffffffff167f563fa4a7efd1ec76c6149d4ab0ffdacd5d44394b3a65f699a68c4537c80b25bf858585896040516103729493929190610e36565b60405180910390a350505050565b6000806103a26003600085815260200190815260200160002060010154610209565b915091508034146103e8576040517f08c379a00000000000000000000000000000000000000000000000000000000081526004016103df90610ec2565b60405180910390fd5b6000600360008581526020019081526020016000206003015411610441576040517f08c379a000000000000000000000000000000000000000000000000000000000815260040161043890610f2e565b60405180910390fd5b6004600085815260200190815260200160002060020160009054906101000a900460ff16156104a5576040517f08c379a000000000000000000000000000000000000000000000000000000000815260040161049c90610f9a565b60405180910390fd5b60016004600086815260200190815260200160002060020160006101000a81548160ff021916908315150217905550336004600086815260200190815260200160002060000160006101000a81548173ffffffffffffffffffffffffffffffffffffffff021916908373ffffffffffffffffffffffffffffffffffffffff160217905550826004600086815260200190815260200160002060010181905550600160036000858152602001908152602001600020600301600082825461056b9190610fba565b925050819055506105c86003600085815260200190815260200160002060000160009054906101000a900473ffffffffffffffffffffffffffffffffffffffff16600360008681526020019081526020016000206001015461065d565b6105f260008054906101000a900473ffffffffffffffffffffffffffffffffffffffff168361065d565b50505050565b6000806000830361060f5760008091509150610627565b600183858161062157610620610fee565b5b04915091505b9250929050565b600080600083850190508481101561064d576000809250925050610656565b60018192509250505b9250929050565b804710156106a257306040517fcd786059000000000000000000000000000000000000000000000000000000008152600401610699919061103e565b60405180910390fd5b60008273ffffffffffffffffffffffffffffffffffffffff16826040516106c89061108a565b60006040518083038185875af1925050503d8060008114610705576040519150601f19603f3d011682016040523d82523d6000602084013e61070a565b606091505b5050905080610745576040517f1425ea4200000000000000000000000000000000000000000000000000000000815260040160405180910390fd5b505050565b6000819050919050565b61075d8161074a565b82525050565b60006020820190506107786000830184610754565b92915050565b600073ffffffffffffffffffffffffffffffffffffffff82169050919050565b6000819050919050565b60006107c36107be6107b98461077e565b61079e565b61077e565b9050919050565b60006107d5826107a8565b9050919050565b60006107e7826107ca565b9050919050565b6107f7816107dc565b82525050565b600060208201905061081260008301846107ee565b92915050565b600080fd5b600080fd5b6000819050919050565b61083581610822565b811461084057600080fd5b50565b6000813590506108528161082c565b92915050565b6000806040838503121561086f5761086e610818565b5b600061087d85828601610843565b925050602061088e85828601610843565b9150509250929050565b60008115159050919050565b6108ad81610898565b82525050565b60006020820190506108c860008301846108a4565b92915050565b6108d78161074a565b81146108e257600080fd5b50565b6000813590506108f4816108ce565b92915050565b6000602082840312156109105761090f610818565b5b600061091e848285016108e5565b91505092915050565b600060408201905061093c6000830185610754565b6109496020830184610754565b9392505050565b600080fd5b600080fd5b600080fd5b60008083601f84011261097557610974610950565b5b8235905067ffffffffffffffff81111561099257610991610955565b5b6020830191508360018202830111156109ae576109ad61095a565b5b9250929050565b600080600080606085870312156109cf576109ce610818565b5b60006109dd878288016108e5565b945050602085013567ffffffffffffffff8111156109fe576109fd61081d565b5b610a0a8782880161095f565b93509350506040610a1d878288016108e5565b91505092959194509250565b60008060408385031215610a4057610a3f610818565b5b6000610a4e85828601610843565b9250506020610a5f858286016108e5565b9150509250929050565b7f4e487b7100000000000000000000000000000000000000000000000000000000600052601160045260246000fd5b6000610aa38261074a565b9150610aae8361074a565b9250828201905080821115610ac657610ac5610a69565b5b92915050565b600082905092915050565b7f4e487b7100000000000000000000000000000000000000000000000000000000600052604160045260246000fd5b7f4e487b7100000000000000000000000000000000000000000000000000000000600052602260045260246000fd5b60006002820490506001821680610b4d57607f821691505b602082108103610b6057610b5f610b06565b5b50919050565b60008190508160005260206000209050919050565b60006020601f8301049050919050565b600082821b905092915050565b600060088302610bc87fffffffffffffffffffffffffffffffffffffffffffffffffffffffffffffffff82610b8b565b610bd28683610b8b565b95508019841693508086168417925050509392505050565b6000610c05610c00610bfb8461074a565b61079e565b61074a565b9050919050565b6000819050919050565b610c1f83610bea565b610c33610c2b82610c0c565b848454610b98565b825550505050565b600090565b610c48610c3b565b610c53818484610c16565b505050565b5b81811015610c7757610c6c600082610c40565b600181019050610c59565b5050565b601f821115610cbc57610c8d81610b66565b610c9684610b7b565b81016020851015610ca5578190505b610cb9610cb185610b7b565b830182610c58565b50505b505050565b600082821c905092915050565b6000610cdf60001984600802610cc1565b1980831691505092915050565b6000610cf88383610cce565b9150826002028217905092915050565b610d128383610acc565b67ffffffffffffffff811115610d2b57610d2a610ad7565b5b610d358254610b35565b610d40828285610c7b565b6000601f831160018114610d6f5760008415610d5d578287013590505b610d678582610cec565b865550610dcf565b601f198416610d7d86610b66565b60005b82811015610da557848901358255600182019150602085019450602081019050610d80565b86831015610dc25784890135610dbe601f891682610cce565b8355505b6001600288020188555050505b50505050505050565b600082825260208201905092915050565b82818337600083830152505050565b6000601f19601f8301169050919050565b6000610e158385610dd8565b9350610e22838584610de9565b610e2b83610df8565b840190509392505050565b60006060820190508181036000830152610e51818688610e09565b9050610e606020830185610754565b610e6d6040830184610754565b95945050505050565b7f496e76616c6964207469636b6574207072696365200000000000000000000000600082015250565b6000610eac601583610dd8565b9150610eb782610e76565b602082019050919050565b60006020820190508181036000830152610edb81610e9f565b9050919050565b7f7469636b6574732061726520736f6c64206f7574202121000000000000000000600082015250565b6000610f18601783610dd8565b9150610f2382610ee2565b602082019050919050565b60006020820190508181036000830152610f4781610f0b565b9050919050565b7f696e76616c696420636f6d6d69746d656e740000000000000000000000000000600082015250565b6000610f84601283610dd8565b9150610f8f82610f4e565b602082019050919050565b60006020820190508181036000830152610fb381610f77565b9050919050565b6000610fc58261074a565b9150610fd08361074a565b9250828203905081811115610fe857610fe7610a69565b5b92915050565b7f4e487b7100000000000000000000000000000000000000000000000000000000600052601260045260246000fd5b60006110288261077e565b9050919050565b6110388161101d565b82525050565b6000602082019050611053600083018461102f565b92915050565b600081905092915050565b50565b6000611074600083611059565b915061107f82611064565b600082019050919050565b600061109582611067565b915081905091905056fea26469706673582212200cd71c6dff476b77cf05216d216cb536974e03d5adedfe19c2e9845be9e06b5664736f6c63430008180033",
  "linkReferences": {},
  "deployedLinkReferences": {}
}